{
  "contractName": "Commission",
  "abi": [
    {
      "inputs": [
        {
          "internalType": "address",
          "name": "_commissioner",
          "type": "address"
        },
        {
          "internalType": "uint256",
          "name": "_reward",
          "type": "uint256"
        },
        {
          "internalType": "string",
          "name": "_prompt",
          "type": "string"
        },
        {
          "internalType": "uint256",
          "name": "_minTime",
          "type": "uint256"
        }
      ],
      "stateMutability": "payable",
      "type": "constructor"
    },
    {
      "inputs": [],
      "name": "active",
      "outputs": [
        {
          "internalType": "bool",
          "name": "",
          "type": "bool"
        }
      ],
      "stateMutability": "view",
      "type": "function"
    },
    {
      "inputs": [],
      "name": "commissioner",
      "outputs": [
        {
          "internalType": "address payable",
          "name": "",
          "type": "address"
        }
      ],
      "stateMutability": "view",
      "type": "function"
    },
    {
      "inputs": [
        {
          "internalType": "uint256",
          "name": "",
          "type": "uint256"
        }
      ],
      "name": "entries",
      "outputs": [
        {
          "internalType": "address",
          "name": "author",
          "type": "address"
        },
        {
          "internalType": "string",
          "name": "ipfsPath",
          "type": "string"
        }
      ],
      "stateMutability": "view",
      "type": "function"
    },
    {
      "inputs": [],
      "name": "entryCount",
      "outputs": [
        {
          "internalType": "uint32",
          "name": "",
          "type": "uint32"
        }
      ],
      "stateMutability": "view",
      "type": "function"
    },
    {
      "inputs": [],
      "name": "factory",
      "outputs": [
        {
          "internalType": "contract IFactory",
          "name": "",
          "type": "address"
        }
      ],
      "stateMutability": "view",
      "type": "function"
    },
    {
      "inputs": [],
      "name": "prompt",
      "outputs": [
        {
          "internalType": "string",
          "name": "",
          "type": "string"
        }
      ],
      "stateMutability": "view",
      "type": "function"
    },
    {
      "inputs": [],
      "name": "reward",
      "outputs": [
        {
          "internalType": "uint256",
          "name": "",
          "type": "uint256"
        }
      ],
      "stateMutability": "view",
      "type": "function"
    },
    {
      "inputs": [
        {
          "internalType": "address",
          "name": "",
          "type": "address"
        }
      ],
      "name": "votes",
      "outputs": [
        {
          "internalType": "uint256",
          "name": "",
          "type": "uint256"
        }
      ],
      "stateMutability": "view",
      "type": "function"
    },
    {
      "inputs": [],
      "name": "getForerunner",
      "outputs": [
        {
          "internalType": "address",
          "name": "",
          "type": "address"
        }
      ],
      "stateMutability": "view",
      "type": "function"
    },
    {
      "inputs": [],
      "name": "addReward",
      "outputs": [],
      "stateMutability": "payable",
      "type": "function"
    },
    {
      "inputs": [],
      "name": "cancel",
      "outputs": [],
      "stateMutability": "nonpayable",
      "type": "function"
    },
    {
      "inputs": [
        {
          "internalType": "string",
          "name": "_ipfsPath",
          "type": "string"
        }
      ],
      "name": "submitEntry",
      "outputs": [],
      "stateMutability": "nonpayable",
      "type": "function"
    },
    {
      "inputs": [],
      "name": "chooseWinner",
      "outputs": [],
      "stateMutability": "nonpayable",
      "type": "function"
    },
    {
      "inputs": [],
      "name": "chooseWinnerPublic",
      "outputs": [],
      "stateMutability": "nonpayable",
      "type": "function"
    },
    {
      "inputs": [],
      "name": "claimReward",
      "outputs": [],
      "stateMutability": "nonpayable",
      "type": "function"
    },
    {
      "inputs": [],
      "name": "tipWinner",
      "outputs": [],
      "stateMutability": "payable",
      "type": "function"
    },
    {
      "inputs": [],
      "name": "getWinningAuthor",
      "outputs": [
        {
          "internalType": "address",
          "name": "",
          "type": "address"
        }
      ],
      "stateMutability": "view",
      "type": "function"
    },
    {
      "inputs": [
        {
          "internalType": "address",
          "name": "_author",
          "type": "address"
        }
      ],
      "name": "vote",
      "outputs": [],
      "stateMutability": "payable",
      "type": "function"
    }
  ],
  "bytecode": "0x60806040526001600760046101000a81548160ff0219169083151502179055506001600760056101000a81548160ff02191690831515021790555060405162002b6238038062002b6283398181016040528101906200005f919062000268565b33600960006101000a81548173ffffffffffffffffffffffffffffffffffffffff021916908373ffffffffffffffffffffffffffffffffffffffff160217905550836000806101000a81548173ffffffffffffffffffffffffffffffffffffffff021916908373ffffffffffffffffffffffffffffffffffffffff160217905550826006819055508160089080519060200190620000ff92919062000118565b50426004819055508060058190555050505050620004cf565b8280546200012690620003c0565b90600052602060002090601f0160209004810192826200014a576000855562000196565b82601f106200016557805160ff191683800117855562000196565b8280016001018555821562000196579182015b828111156200019557825182559160200191906001019062000178565b5b509050620001a59190620001a9565b5090565b5b80821115620001c4576000816000905550600101620001aa565b5090565b6000620001df620001d98462000316565b620002ed565b905082815260208101848484011115620001f857600080fd5b620002058482856200038a565b509392505050565b6000815190506200021e816200049b565b92915050565b600082601f8301126200023657600080fd5b815162000248848260208601620001c8565b91505092915050565b6000815190506200026281620004b5565b92915050565b600080600080608085870312156200027f57600080fd5b60006200028f878288016200020d565b9450506020620002a28782880162000251565b935050604085015167ffffffffffffffff811115620002c057600080fd5b620002ce8782880162000224565b9250506060620002e18782880162000251565b91505092959194509250565b6000620002f96200030c565b9050620003078282620003f6565b919050565b6000604051905090565b600067ffffffffffffffff8211156200033457620003336200045b565b5b6200033f826200048a565b9050602081019050919050565b6000620003598262000360565b9050919050565b600073ffffffffffffffffffffffffffffffffffffffff82169050919050565b6000819050919050565b60005b83811015620003aa5780820151818401526020810190506200038d565b83811115620003ba576000848401525b50505050565b60006002820490506001821680620003d957607f821691505b60208210811415620003f057620003ef6200042c565b5b50919050565b62000401826200048a565b810181811067ffffffffffffffff821117156200042357620004226200045b565b5b80604052505050565b7f4e487b7100000000000000000000000000000000000000000000000000000000600052602260045260246000fd5b7f4e487b7100000000000000000000000000000000000000000000000000000000600052604160045260246000fd5b6000601f19601f8301169050919050565b620004a6816200034c565b8114620004b257600080fd5b50565b620004c08162000380565b8114620004cc57600080fd5b50565b61268380620004df6000396000f3fe6080604052600436106101095760003560e01c8063b88a802f11610095578063e59a58ee11610064578063e59a58ee14610315578063ea8a1af01461031f578063ebb510ae14610336578063f189449814610361578063fb06b8721461038c57610109565b8063b88a802f1461027f578063c45a015514610296578063cd38aa87146102c1578063d8bff5a5146102d857610109565b80636dd7d8ea116100dc5780636dd7d8ea146101b85780637c65d711146101d457806387bfba65146101ff57806389713a3c14610216578063b30906d41461024157610109565b806302fb0c5e1461010e5780630cbb0f8314610139578063228cb733146101645780632b00cd641461018f575b600080fd5b34801561011a57600080fd5b50610123610396565b6040516101309190611e16565b60405180910390f35b34801561014557600080fd5b5061014e6103a9565b60405161015b9190612019565b60405180910390f35b34801561017057600080fd5b506101796103bf565b6040516101869190611ffe565b60405180910390f35b34801561019b57600080fd5b506101b660048036038101906101b19190611a9a565b6103c5565b005b6101d260048036038101906101cd9190611a71565b61075b565b005b3480156101e057600080fd5b506101e9610af0565b6040516101f69190611e4c565b60405180910390f35b34801561020b57600080fd5b50610214610b7e565b005b34801561022257600080fd5b5061022b610c08565b6040516102389190611d27565b60405180910390f35b34801561024d57600080fd5b5061026860048036038101906102639190611adb565b610c76565b604051610276929190611dbd565b60405180910390f35b34801561028b57600080fd5b50610294610d52565b005b3480156102a257600080fd5b506102ab610f8c565b6040516102b89190611e31565b60405180910390f35b3480156102cd57600080fd5b506102d6610fb2565b005b3480156102e457600080fd5b506102ff60048036038101906102fa9190611a71565b6110dc565b60405161030c9190611ffe565b60405180910390f35b61031d6110f4565b005b34801561032b57600080fd5b5061033461121d565b005b34801561034257600080fd5b5061034b611456565b6040516103589190611d27565b60405180910390f35b34801561036d57600080fd5b506103766114d5565b6040516103839190611d42565b60405180910390f35b6103946114f9565b005b600760049054906101000a900460ff1681565b600760009054906101000a900463ffffffff1681565b60065481565b60011515600760049054906101000a900460ff1615151461041b576040517f08c379a000000000000000000000000000000000000000000000000000000000815260040161041290611f9e565b60405180910390fd5b60001515600a60003373ffffffffffffffffffffffffffffffffffffffff1673ffffffffffffffffffffffffffffffffffffffff16815260200190815260200160002060009054906101000a900460ff161515146104ae576040517f08c379a00000000000000000000000000000000000000000000000000000000081526004016104a590611fde565b60405180910390fd5b60008054906101000a900473ffffffffffffffffffffffffffffffffffffffff1673ffffffffffffffffffffffffffffffffffffffff163373ffffffffffffffffffffffffffffffffffffffff16141561053d576040517f08c379a000000000000000000000000000000000000000000000000000000000815260040161053490611f5e565b60405180910390fd5b6001600a60003373ffffffffffffffffffffffffffffffffffffffff1673ffffffffffffffffffffffffffffffffffffffff16815260200190815260200160002060006101000a81548160ff021916908315150217905550600760059054906101000a900460ff16156105c6576000600760056101000a81548160ff0219169083151502179055505b600060405180604001604052803373ffffffffffffffffffffffffffffffffffffffff168152602001838152509050600c81908060018154018082558091505060019003906000526020600020906002020160009091909190915060008201518160000160006101000a81548173ffffffffffffffffffffffffffffffffffffffff021916908373ffffffffffffffffffffffffffffffffffffffff160217905550602082015181600101908051906020019061068492919061193c565b5050506007600081819054906101000a900463ffffffff16809291906106a9906122ca565b91906101000a81548163ffffffff021916908363ffffffff16021790555050600960009054906101000a900473ffffffffffffffffffffffffffffffffffffffff1673ffffffffffffffffffffffffffffffffffffffff16636506c20083336040518363ffffffff1660e01b8152600401610725929190611e6e565b600060405180830381600087803b15801561073f57600080fd5b505af1158015610753573d6000803e3d6000fd5b505050505050565b60011515600760049054906101000a900460ff161515146107b1576040517f08c379a00000000000000000000000000000000000000000000000000000000081526004016107a890611f9e565b60405180910390fd5b600034116107f4576040517f08c379a00000000000000000000000000000000000000000000000000000000081526004016107eb90611e9e565b60405180910390fd5b8073ffffffffffffffffffffffffffffffffffffffff163373ffffffffffffffffffffffffffffffffffffffff161415610863576040517f08c379a000000000000000000000000000000000000000000000000000000000815260040161085a90611ebe565b60405180910390fd5b60011515600a60008373ffffffffffffffffffffffffffffffffffffffff1673ffffffffffffffffffffffffffffffffffffffff16815260200190815260200160002060009054906101000a900460ff161515146108f6576040517f08c379a00000000000000000000000000000000000000000000000000000000081526004016108ed90611fbe565b60405180910390fd5b61094834600b60008473ffffffffffffffffffffffffffffffffffffffff1673ffffffffffffffffffffffffffffffffffffffff1681526020019081526020016000205461166b90919063ffffffff16565b600b60008373ffffffffffffffffffffffffffffffffffffffff1673ffffffffffffffffffffffffffffffffffffffff16815260200190815260200160002081905550600354600b60008373ffffffffffffffffffffffffffffffffffffffff1673ffffffffffffffffffffffffffffffffffffffff168152602001908152602001600020541115610a5c57600b60008273ffffffffffffffffffffffffffffffffffffffff1673ffffffffffffffffffffffffffffffffffffffff1681526020019081526020016000205460038190555080600260006101000a81548173ffffffffffffffffffffffffffffffffffffffff021916908373ffffffffffffffffffffffffffffffffffffffff1602179055505b600960009054906101000a900473ffffffffffffffffffffffffffffffffffffffff1673ffffffffffffffffffffffffffffffffffffffff1663c3dff8ae8233346040518463ffffffff1660e01b8152600401610abb93929190611d86565b600060405180830381600087803b158015610ad557600080fd5b505af1158015610ae9573d6000803e3d6000fd5b5050505050565b60088054610afd90612267565b80601f0160208091040260200160405190810160405280929190818152602001828054610b2990612267565b8015610b765780601f10610b4b57610100808354040283529160200191610b76565b820191906000526020600020905b815481529060010190602001808311610b5957829003601f168201915b505050505081565b60011515600760049054906101000a900460ff16151514610bd4576040517f08c379a0000000000000000000000000000000000000000000000000000000008152600401610bcb90611f9e565b60405180910390fd5b6202a300600554600454610be891906120a6565b610bf291906120a6565b4211610bfd57600080fd5b610c0633611681565b565b60008060035411610c4e576040517f08c379a0000000000000000000000000000000000000000000000000000000008152600401610c4590611efe565b60405180910390fd5b600260009054906101000a900473ffffffffffffffffffffffffffffffffffffffff16905090565b600c8181548110610c8657600080fd5b90600052602060002090600202016000915090508060000160009054906101000a900473ffffffffffffffffffffffffffffffffffffffff1690806001018054610ccf90612267565b80601f0160208091040260200160405190810160405280929190818152602001828054610cfb90612267565b8015610d485780601f10610d1d57610100808354040283529160200191610d48565b820191906000526020600020905b815481529060010190602001808311610d2b57829003601f168201915b5050505050905082565b60001515600760049054906101000a900460ff16151514610da8576040517f08c379a0000000000000000000000000000000000000000000000000000000008152600401610d9f90611f1e565b60405180910390fd5b6000600b60003373ffffffffffffffffffffffffffffffffffffffff1673ffffffffffffffffffffffffffffffffffffffff1681526020019081526020016000205411610e2a576040517f08c379a0000000000000000000000000000000000000000000000000000000008152600401610e2190611f3e565b60405180910390fd5b6000600b60003373ffffffffffffffffffffffffffffffffffffffff1673ffffffffffffffffffffffffffffffffffffffff1681526020019081526020016000205490506000600b60003373ffffffffffffffffffffffffffffffffffffffff1673ffffffffffffffffffffffffffffffffffffffff168152602001908152602001600020819055503373ffffffffffffffffffffffffffffffffffffffff166108fc829081150290604051600060405180830381858888f19350505050158015610ef9573d6000803e3d6000fd5b50600960009054906101000a900473ffffffffffffffffffffffffffffffffffffffff1673ffffffffffffffffffffffffffffffffffffffff16631cfae3a133836040518363ffffffff1660e01b8152600401610f57929190611ded565b600060405180830381600087803b158015610f7157600080fd5b505af1158015610f85573d6000803e3d6000fd5b5050505050565b600960009054906101000a900473ffffffffffffffffffffffffffffffffffffffff1681565b60011515600760049054906101000a900460ff16151514611008576040517f08c379a0000000000000000000000000000000000000000000000000000000008152600401610fff90611f9e565b60405180910390fd5b60008054906101000a900473ffffffffffffffffffffffffffffffffffffffff1673ffffffffffffffffffffffffffffffffffffffff163373ffffffffffffffffffffffffffffffffffffffff1614611096576040517f08c379a000000000000000000000000000000000000000000000000000000000815260040161108d90611ede565b60405180910390fd5b6005546004546110a691906120a6565b42116110b157600080fd5b6110da60008054906101000a900473ffffffffffffffffffffffffffffffffffffffff16611681565b565b600b6020528060005260406000206000915090505481565b60008054906101000a900473ffffffffffffffffffffffffffffffffffffffff1673ffffffffffffffffffffffffffffffffffffffff163373ffffffffffffffffffffffffffffffffffffffff16141580156111505750600034115b15611171576000600760056101000a81548160ff0219169083151502179055505b6111863460065461166b90919063ffffffff16565b600681905550600960009054906101000a900473ffffffffffffffffffffffffffffffffffffffff1673ffffffffffffffffffffffffffffffffffffffff1663a28ed05333346040518363ffffffff1660e01b81526004016111e9929190611ded565b600060405180830381600087803b15801561120357600080fd5b505af1158015611217573d6000803e3d6000fd5b50505050565b60008054906101000a900473ffffffffffffffffffffffffffffffffffffffff1673ffffffffffffffffffffffffffffffffffffffff163373ffffffffffffffffffffffffffffffffffffffff16146112ab576040517f08c379a00000000000000000000000000000000000000000000000000000000081526004016112a290611ede565b60405180910390fd5b60011515600760049054906101000a900460ff16151514611301576040517f08c379a00000000000000000000000000000000000000000000000000000000081526004016112f890611f9e565b60405180910390fd5b600760059054906101000a900460ff16611350576040517f08c379a000000000000000000000000000000000000000000000000000000000815260040161134790611f7e565b60405180910390fd5b6000600760046101000a81548160ff02191690831515021790555060008054906101000a900473ffffffffffffffffffffffffffffffffffffffff1673ffffffffffffffffffffffffffffffffffffffff166108fc479081150290604051600060405180830381858888f193505050501580156113d1573d6000803e3d6000fd5b50600960009054906101000a900473ffffffffffffffffffffffffffffffffffffffff1673ffffffffffffffffffffffffffffffffffffffff166357fe9c416040518163ffffffff1660e01b8152600401600060405180830381600087803b15801561143c57600080fd5b505af1158015611450573d6000803e3d6000fd5b50505050565b6000801515600760049054906101000a900460ff161515146114ad576040517f08c379a00000000000000000000000000000000000000000000000000000000081526004016114a490611f1e565b60405180910390fd5b600160009054906101000a900473ffffffffffffffffffffffffffffffffffffffff16905090565b60008054906101000a900473ffffffffffffffffffffffffffffffffffffffff1681565b60001515600760049054906101000a900460ff1615151461154f576040517f08c379a000000000000000000000000000000000000000000000000000000000815260040161154690611f1e565b60405180910390fd5b600160009054906101000a900473ffffffffffffffffffffffffffffffffffffffff1673ffffffffffffffffffffffffffffffffffffffff166108fc349081150290604051600060405180830381858888f193505050501580156115b7573d6000803e3d6000fd5b50600960009054906101000a900473ffffffffffffffffffffffffffffffffffffffff1673ffffffffffffffffffffffffffffffffffffffff166307a918d7600160009054906101000a900473ffffffffffffffffffffffffffffffffffffffff16346040518363ffffffff1660e01b8152600401611637929190611d5d565b600060405180830381600087803b15801561165157600080fd5b505af1158015611665573d6000803e3d6000fd5b50505050565b6000818361167991906120a6565b905092915050565b6000600760046101000a81548160ff02191690831515021790555060006116b4600a60065461191090919063ffffffff16565b90508173ffffffffffffffffffffffffffffffffffffffff166108fc829081150290604051600060405180830381858888f193505050501580156116fc573d6000803e3d6000fd5b50600260009054906101000a900473ffffffffffffffffffffffffffffffffffffffff16600160006101000a81548173ffffffffffffffffffffffffffffffffffffffff021916908373ffffffffffffffffffffffffffffffffffffffff1602179055506117758160065461192690919063ffffffff16565b600681905550600160009054906101000a900473ffffffffffffffffffffffffffffffffffffffff1673ffffffffffffffffffffffffffffffffffffffff166108fc61182d600b6000600160009054906101000a900473ffffffffffffffffffffffffffffffffffffffff1673ffffffffffffffffffffffffffffffffffffffff1673ffffffffffffffffffffffffffffffffffffffff1681526020019081526020016000205460065461166b90919063ffffffff16565b9081150290604051600060405180830381858888f19350505050158015611858573d6000803e3d6000fd5b50600960009054906101000a900473ffffffffffffffffffffffffffffffffffffffff1673ffffffffffffffffffffffffffffffffffffffff1663ff181dad600160009054906101000a900473ffffffffffffffffffffffffffffffffffffffff166006546040518363ffffffff1660e01b81526004016118da929190611d5d565b600060405180830381600087803b1580156118f457600080fd5b505af1158015611908573d6000803e3d6000fd5b505050505050565b6000818361191e91906120fc565b905092915050565b60008183611934919061212d565b905092915050565b82805461194890612267565b90600052602060002090601f01602090048101928261196a57600085556119b1565b82601f1061198357805160ff19168380011785556119b1565b828001600101855582156119b1579182015b828111156119b0578251825591602001919060010190611995565b5b5090506119be91906119c2565b5090565b5b808211156119db5760008160009055506001016119c3565b5090565b60006119f26119ed84612059565b612034565b905082815260208101848484011115611a0a57600080fd5b611a15848285612225565b509392505050565b600081359050611a2c8161261f565b92915050565b600082601f830112611a4357600080fd5b8135611a538482602086016119df565b91505092915050565b600081359050611a6b81612636565b92915050565b600060208284031215611a8357600080fd5b6000611a9184828501611a1d565b91505092915050565b600060208284031215611aac57600080fd5b600082013567ffffffffffffffff811115611ac657600080fd5b611ad284828501611a32565b91505092915050565b600060208284031215611aed57600080fd5b6000611afb84828501611a5c565b91505092915050565b611b0d816121cb565b82525050565b611b1c81612173565b82525050565b611b2b81612161565b82525050565b611b3a81612185565b82525050565b611b49816121dd565b82525050565b6000611b5a8261208a565b611b648185612095565b9350611b74818560208601612234565b611b7d816123b3565b840191505092915050565b6000611b95602483612095565b9150611ba0826123c4565b604082019050919050565b6000611bb8601c83612095565b9150611bc382612413565b602082019050919050565b6000611bdb601483612095565b9150611be68261243c565b602082019050919050565b6000611bfe600c83612095565b9150611c0982612465565b602082019050919050565b6000611c21601383612095565b9150611c2c8261248e565b602082019050919050565b6000611c44601183612095565b9150611c4f826124b7565b602082019050919050565b6000611c67602483612095565b9150611c72826124e0565b604082019050919050565b6000611c8a603d83612095565b9150611c958261252f565b604082019050919050565b6000611cad602183612095565b9150611cb88261257e565b604082019050919050565b6000611cd0600f83612095565b9150611cdb826125cd565b602082019050919050565b6000611cf3601883612095565b9150611cfe826125f6565b602082019050919050565b611d12816121b1565b82525050565b611d21816121bb565b82525050565b6000602082019050611d3c6000830184611b22565b92915050565b6000602082019050611d576000830184611b13565b92915050565b6000604082019050611d726000830185611b04565b611d7f6020830184611d09565b9392505050565b6000606082019050611d9b6000830186611b22565b611da86020830185611b22565b611db56040830184611d09565b949350505050565b6000604082019050611dd26000830185611b22565b8181036020830152611de48184611b4f565b90509392505050565b6000604082019050611e026000830185611b22565b611e0f6020830184611d09565b9392505050565b6000602082019050611e2b6000830184611b31565b92915050565b6000602082019050611e466000830184611b40565b92915050565b60006020820190508181036000830152611e668184611b4f565b905092915050565b60006040820190508181036000830152611e888185611b4f565b9050611e976020830184611b22565b9392505050565b60006020820190508181036000830152611eb781611b88565b9050919050565b60006020820190508181036000830152611ed781611bab565b9050919050565b60006020820190508181036000830152611ef781611bce565b9050919050565b60006020820190508181036000830152611f1781611bf1565b9050919050565b60006020820190508181036000830152611f3781611c14565b9050919050565b60006020820190508181036000830152611f5781611c37565b9050919050565b60006020820190508181036000830152611f7781611c5a565b9050919050565b60006020820190508181036000830152611f9781611c7d565b9050919050565b60006020820190508181036000830152611fb781611ca0565b9050919050565b60006020820190508181036000830152611fd781611cc3565b9050919050565b60006020820190508181036000830152611ff781611ce6565b9050919050565b60006020820190506120136000830184611d09565b92915050565b600060208201905061202e6000830184611d18565b92915050565b600061203e61204f565b905061204a8282612299565b919050565b6000604051905090565b600067ffffffffffffffff82111561207457612073612384565b5b61207d826123b3565b9050602081019050919050565b600081519050919050565b600082825260208201905092915050565b60006120b1826121b1565b91506120bc836121b1565b9250827fffffffffffffffffffffffffffffffffffffffffffffffffffffffffffffffff038211156120f1576120f06122f7565b5b828201905092915050565b6000612107826121b1565b9150612112836121b1565b92508261212257612121612326565b5b828204905092915050565b6000612138826121b1565b9150612143836121b1565b925082821015612156576121556122f7565b5b828203905092915050565b600061216c82612191565b9050919050565b600061217e82612191565b9050919050565b60008115159050919050565b600073ffffffffffffffffffffffffffffffffffffffff82169050919050565b6000819050919050565b600063ffffffff82169050919050565b60006121d682612201565b9050919050565b60006121e8826121ef565b9050919050565b60006121fa82612191565b9050919050565b600061220c82612213565b9050919050565b600061221e82612191565b9050919050565b82818337600083830152505050565b60005b83811015612252578082015181840152602081019050612237565b83811115612261576000848401525b50505050565b6000600282049050600182168061227f57607f821691505b6020821081141561229357612292612355565b5b50919050565b6122a2826123b3565b810181811067ffffffffffffffff821117156122c1576122c0612384565b5b80604052505050565b60006122d5826121bb565b915063ffffffff8214156122ec576122eb6122f7565b5b600182019050919050565b7f4e487b7100000000000000000000000000000000000000000000000000000000600052601160045260246000fd5b7f4e487b7100000000000000000000000000000000000000000000000000000000600052601260045260246000fd5b7f4e487b7100000000000000000000000000000000000000000000000000000000600052602260045260246000fd5b7f4e487b7100000000000000000000000000000000000000000000000000000000600052604160045260246000fd5b6000601f19601f8301169050919050565b7f4d7573742073656e642076616c756520746f20766f746520666f7220616e206560008201527f6e74727900000000000000000000000000000000000000000000000000000000602082015250565b7f596f752063616e6e6f7420766f746520666f7220796f757273656c6600000000600082015250565b7f4e6f742061757468656e74696361746564203a28000000000000000000000000600082015250565b7f4e6f20766f746573207965740000000000000000000000000000000000000000600082015250565b7f4e6f206f6e652068617320776f6e207965742100000000000000000000000000600082015250565b7f4e6f20766f74657320666f7220796f7521000000000000000000000000000000600082015250565b7f596f752063616e6e6f7420656e74657220796f7572206f776e20636f6d6d697360008201527f73696f6e00000000000000000000000000000000000000000000000000000000602082015250565b7f436f6e74726163742063616e6e6f742062652063616e63656c6c6564206f6e6360008201527f6520656e74726965732068617665206265656e207375626d6974746564000000602082015250565b7f5468697320636f6d6d697373696f6e2068617320616c726561647920656e646560008201527f6400000000000000000000000000000000000000000000000000000000000000602082015250565b7f456e747279206e6f7420666f756e640000000000000000000000000000000000600082015250565b7f596f75206861766520616c726561647920656e74657265640000000000000000600082015250565b61262881612161565b811461263357600080fd5b50565b61263f816121b1565b811461264a57600080fd5b5056fea2646970667358221220076b710d9493d8d6581ad619189cdc67fdbbe538534038e2e1a03f84e3e6d3ea64736f6c63430008040033",
  "immutableReferences": {},
  "source": "// SPDX-License-Identifier: MIT\npragma solidity ^0.8.4;\nimport \"./SafeMath.sol\";\n\ninterface IFactory {\n    function _voteSubmitted(address _author, address _voter, uint256 _value) external;\n    function _rewardAdded(address _sender, uint256 _value) external;\n    function _commissionCancelled() external;\n    function _entrySubmitted(string memory _ipfsPath, address _author) external;\n    function _winnerChosen(address _winningAuthor, uint256 _reward) external;\n    function _rewardClaimed(address _claimer, uint256 _votesClaimed) external;\n    function _winnerTipped(address _winningAuthor, uint256 _amount) external;\n}\n\ncontract Commission {\n    using SafeMath for uint256;\n    struct Entry {\n        address author;\n        string ipfsPath;\n    }\n\n    address payable public commissioner;\n    address payable winningAuthor;\n    address payable foreRunner;\n    uint256 highestVoteSoFar;\n    uint256 creation;\n    uint256 minTime;\n    uint256 public reward;\n    uint32 public entryCount;\n    bool public active = true;\n    bool canBeCancelled = true;\n    string public prompt;\n    IFactory public factory;\n    mapping(address => bool) entered;\n    mapping(address => uint256) public votes;\n    Entry[] public entries;\n\n    constructor(\n        address _commissioner,\n        uint256 _reward,\n        string memory _prompt,\n        uint256 _minTime\n    ) payable {\n        factory = IFactory(msg.sender);\n        commissioner = payable(_commissioner);\n        reward = _reward;\n        prompt = _prompt;\n        creation = block.timestamp;\n        minTime = _minTime;\n    }\n\n    modifier auth() {\n        require(msg.sender == commissioner, \"Not authenticated :(\");\n        _;\n    }\n\n    modifier minTimePassed() {\n        require(block.timestamp > creation + minTime);\n        _;\n    }\n    modifier minTimeAndTwoDaysPassed() {\n        require(block.timestamp > creation + minTime + 172800);\n        _;\n    }\n\n    modifier finished() {\n        require(active == false, \"No one has won yet!\");\n        _;\n    }\n    modifier ongoing() {\n        require(active == true, \"This commission has already ended\");\n        _;\n    }\n\n    function getForerunner() public view returns (address) {\n        require(highestVoteSoFar > 0, \"No votes yet\");\n        return foreRunner;\n    }\n\n    function addReward() public payable {\n        if (msg.sender != commissioner && msg.value > 0) canBeCancelled = false;\n        reward = reward.add(msg.value);\n        factory._rewardAdded(msg.sender, msg.value);\n    }\n\n    function cancel() public auth ongoing {\n        require(\n            canBeCancelled,\n            \"Contract cannot be cancelled once entries have been submitted\"\n        );\n        active = false;\n        commissioner.transfer(address(this).balance);\n        factory._commissionCancelled();\n    }\n\n    function submitEntry(string memory _ipfsPath)\n        public\n        ongoing\n    {\n        require(entered[msg.sender] == false, \"You have already entered\");\n        require(\n            msg.sender != commissioner,\n            \"You cannot enter your own commission\"\n        );\n        entered[msg.sender] = true;\n        if (canBeCancelled) canBeCancelled = false;\n        Entry memory newEntry = Entry({\n            author: msg.sender,\n            ipfsPath: _ipfsPath\n        });\n        entries.push(newEntry);\n        entryCount++;\n        factory._entrySubmitted(_ipfsPath, msg.sender);\n    }\n\n    function chooseWinner() external ongoing auth minTimePassed {\n        _carryOutChooseWinner(commissioner);\n    }\n\n    function chooseWinnerPublic() external ongoing minTimeAndTwoDaysPassed {\n        _carryOutChooseWinner(msg.sender);\n    }\n\n    function _carryOutChooseWinner(address caller) internal {\n        active = false;\n        uint256 tenpercent = reward.div(10);\n        payable(caller).transfer(tenpercent);\n        winningAuthor = foreRunner;\n        reward = reward.sub(tenpercent);\n        winningAuthor.transfer(reward.add(votes[winningAuthor]));\n        factory._winnerChosen(winningAuthor, reward);\n    }\n\n    function claimReward() public finished {\n        require(votes[msg.sender] > 0, \"No votes for you!\");\n        uint256 votesForUser = votes[msg.sender];\n        votes[msg.sender] = 0;\n        payable(msg.sender).transfer(votesForUser);\n        factory._rewardClaimed(msg.sender, votesForUser);\n    }\n\n    function tipWinner() public payable finished {\n        winningAuthor.transfer(msg.value);\n        factory._winnerTipped(winningAuthor, msg.value);\n    }\n\n    function getWinningAuthor() public view finished returns (address) {\n        return winningAuthor;\n    }\n\n    function vote(address _author) public payable ongoing {\n        require(msg.value > 0, \"Must send value to vote for an entry\");\n        require(msg.sender != _author, \"You cannot vote for yourself\");\n        require(entered[_author] == true, \"Entry not found\");\n        votes[_author] = votes[_author].add(msg.value);\n        if (votes[_author] > highestVoteSoFar) {\n            highestVoteSoFar = votes[_author];\n            foreRunner = payable(_author);\n        }\n        factory._voteSubmitted(_author, msg.sender, msg.value);\n    }\n}\n",
  "sourcePath": "/Users/thomasfoydel/Documents/Coding/solidity/commissionerGithub/blockchain/contracts/Commission.sol",
  "compiler": {
    "name": "solc",
    "version": "0.8.4+commit.c7e474f2.Emscripten.clang"
  },
  "schemaVersion": "3.4.1",
  "updatedAt": "2022-03-12T20:36:36.033Z",
  "devdoc": {
    "kind": "dev",
    "methods": {},
    "version": 1
  },
  "userdoc": {
    "kind": "user",
    "methods": {},
    "version": 1
  }
}