{
  "contractName": "Factory",
  "abi": [
    {
      "inputs": [],
      "stateMutability": "nonpayable",
      "type": "constructor"
    },
    {
      "anonymous": false,
      "inputs": [
        {
          "indexed": true,
          "internalType": "address",
          "name": "commission",
          "type": "address"
        },
        {
          "indexed": true,
          "internalType": "uint256",
          "name": "timestamp",
          "type": "uint256"
        }
      ],
      "name": "CommissionCancelled",
      "type": "event"
    },
    {
      "anonymous": false,
      "inputs": [
        {
          "indexed": true,
          "internalType": "address",
          "name": "commissioner",
          "type": "address"
        },
        {
          "indexed": true,
          "internalType": "uint256",
          "name": "timestamp",
          "type": "uint256"
        },
        {
          "indexed": false,
          "internalType": "uint256",
          "name": "reward",
          "type": "uint256"
        },
        {
          "indexed": false,
          "internalType": "string",
          "name": "prompt",
          "type": "string"
        },
        {
          "indexed": false,
          "internalType": "address",
          "name": "commission",
          "type": "address"
        },
        {
          "indexed": false,
          "internalType": "uint256",
          "name": "minTime",
          "type": "uint256"
        }
      ],
      "name": "CommissionCreated",
      "type": "event"
    },
    {
      "anonymous": false,
      "inputs": [
        {
          "indexed": true,
          "internalType": "address",
          "name": "author",
          "type": "address"
        },
        {
          "indexed": false,
          "internalType": "string",
          "name": "ipfsPath",
          "type": "string"
        },
        {
          "indexed": true,
          "internalType": "address",
          "name": "commission",
          "type": "address"
        }
      ],
      "name": "EntrySubmitted",
      "type": "event"
    },
    {
      "anonymous": false,
      "inputs": [
        {
          "indexed": true,
          "internalType": "address",
          "name": "sender",
          "type": "address"
        },
        {
          "indexed": true,
          "internalType": "uint256",
          "name": "value",
          "type": "uint256"
        },
        {
          "indexed": true,
          "internalType": "address",
          "name": "commission",
          "type": "address"
        }
      ],
      "name": "RewardAdded",
      "type": "event"
    },
    {
      "anonymous": false,
      "inputs": [
        {
          "indexed": true,
          "internalType": "address",
          "name": "claimer",
          "type": "address"
        },
        {
          "indexed": true,
          "internalType": "uint256",
          "name": "votesClaimed",
          "type": "uint256"
        },
        {
          "indexed": true,
          "internalType": "address",
          "name": "commission",
          "type": "address"
        }
      ],
      "name": "RewardClaimed",
      "type": "event"
    },
    {
      "anonymous": false,
      "inputs": [
        {
          "indexed": true,
          "internalType": "address",
          "name": "author",
          "type": "address"
        },
        {
          "indexed": true,
          "internalType": "address",
          "name": "voter",
          "type": "address"
        },
        {
          "indexed": false,
          "internalType": "uint256",
          "name": "amount",
          "type": "uint256"
        },
        {
          "indexed": true,
          "internalType": "address",
          "name": "commission",
          "type": "address"
        }
      ],
      "name": "VoteSubmitted",
      "type": "event"
    },
    {
      "anonymous": false,
      "inputs": [
        {
          "indexed": true,
          "internalType": "address",
          "name": "winningAuthor",
          "type": "address"
        },
        {
          "indexed": true,
          "internalType": "uint256",
          "name": "reward",
          "type": "uint256"
        },
        {
          "indexed": true,
          "internalType": "address",
          "name": "commission",
          "type": "address"
        }
      ],
      "name": "WinnerChosen",
      "type": "event"
    },
    {
      "anonymous": false,
      "inputs": [
        {
          "indexed": true,
          "internalType": "address",
          "name": "winningAuthor",
          "type": "address"
        },
        {
          "indexed": false,
          "internalType": "uint256",
          "name": "amount",
          "type": "uint256"
        },
        {
          "indexed": true,
          "internalType": "address",
          "name": "commission",
          "type": "address"
        },
        {
          "indexed": true,
          "internalType": "address",
          "name": "tipper",
          "type": "address"
        }
      ],
      "name": "WinnerTipped",
      "type": "event"
    },
    {
      "inputs": [],
      "name": "commissionCount",
      "outputs": [
        {
          "internalType": "uint32",
          "name": "",
          "type": "uint32"
        }
      ],
      "stateMutability": "view",
      "type": "function"
    },
    {
      "inputs": [
        {
          "internalType": "address",
          "name": "",
          "type": "address"
        }
      ],
      "name": "commissions",
      "outputs": [
        {
          "internalType": "bool",
          "name": "",
          "type": "bool"
        }
      ],
      "stateMutability": "view",
      "type": "function"
    },
    {
      "inputs": [
        {
          "internalType": "uint256",
          "name": "",
          "type": "uint256"
        }
      ],
      "name": "deployedCommissions",
      "outputs": [
        {
          "internalType": "address",
          "name": "",
          "type": "address"
        }
      ],
      "stateMutability": "view",
      "type": "function"
    },
    {
      "inputs": [],
      "name": "deployer",
      "outputs": [
        {
          "internalType": "address",
          "name": "",
          "type": "address"
        }
      ],
      "stateMutability": "view",
      "type": "function"
    },
    {
      "inputs": [
        {
          "internalType": "string",
          "name": "prompt",
          "type": "string"
        },
        {
          "internalType": "uint256",
          "name": "_minTime",
          "type": "uint256"
        }
      ],
      "name": "createCommission",
      "outputs": [],
      "stateMutability": "payable",
      "type": "function"
    },
    {
      "inputs": [],
      "name": "getDeployedCommissions",
      "outputs": [
        {
          "internalType": "address[]",
          "name": "",
          "type": "address[]"
        }
      ],
      "stateMutability": "view",
      "type": "function"
    },
    {
      "inputs": [
        {
          "internalType": "uint32",
          "name": "_start",
          "type": "uint32"
        },
        {
          "internalType": "uint8",
          "name": "_pageSize",
          "type": "uint8"
        }
      ],
      "name": "paginatedCommissions",
      "outputs": [
        {
          "internalType": "address[]",
          "name": "",
          "type": "address[]"
        }
      ],
      "stateMutability": "view",
      "type": "function"
    },
    {
      "inputs": [
        {
          "internalType": "address",
          "name": "_author",
          "type": "address"
        },
        {
          "internalType": "address",
          "name": "_voter",
          "type": "address"
        },
        {
          "internalType": "uint256",
          "name": "_value",
          "type": "uint256"
        }
      ],
      "name": "_voteSubmitted",
      "outputs": [],
      "stateMutability": "nonpayable",
      "type": "function"
    },
    {
      "inputs": [
        {
          "internalType": "address",
          "name": "_sender",
          "type": "address"
        },
        {
          "internalType": "uint256",
          "name": "_value",
          "type": "uint256"
        }
      ],
      "name": "_rewardAdded",
      "outputs": [],
      "stateMutability": "nonpayable",
      "type": "function"
    },
    {
      "inputs": [],
      "name": "_commissionCancelled",
      "outputs": [],
      "stateMutability": "nonpayable",
      "type": "function"
    },
    {
      "inputs": [
        {
          "internalType": "string",
          "name": "_ipfsPath",
          "type": "string"
        },
        {
          "internalType": "address",
          "name": "_author",
          "type": "address"
        }
      ],
      "name": "_entrySubmitted",
      "outputs": [],
      "stateMutability": "nonpayable",
      "type": "function"
    },
    {
      "inputs": [
        {
          "internalType": "address",
          "name": "_winningAuthor",
          "type": "address"
        },
        {
          "internalType": "uint256",
          "name": "_reward",
          "type": "uint256"
        }
      ],
      "name": "_winnerChosen",
      "outputs": [],
      "stateMutability": "nonpayable",
      "type": "function"
    },
    {
      "inputs": [
        {
          "internalType": "address",
          "name": "_claimer",
          "type": "address"
        },
        {
          "internalType": "uint256",
          "name": "_votesClaimed",
          "type": "uint256"
        }
      ],
      "name": "_rewardClaimed",
      "outputs": [],
      "stateMutability": "nonpayable",
      "type": "function"
    },
    {
      "inputs": [
        {
          "internalType": "address",
          "name": "_winningAuthor",
          "type": "address"
        },
        {
          "internalType": "uint256",
          "name": "_amount",
          "type": "uint256"
        }
      ],
      "name": "_winnerTipped",
      "outputs": [],
      "stateMutability": "nonpayable",
      "type": "function"
    }
  ],
  "bytecode": "0x608060405234801561001057600080fd5b5033600160006101000a81548173ffffffffffffffffffffffffffffffffffffffff021916908373ffffffffffffffffffffffffffffffffffffffff160217905550614285806100616000396000f3fe608060405260043610620000f25760003560e01c80637117427c116200008b578063c3dff8ae1162000061578063c3dff8ae14620002f5578063d5f394881462000323578063f07910061462000353578063ff181dad146200037357620000f2565b80637117427c146200023f5780637b05afb51462000283578063a28ed05314620002c757620000f2565b8063408ce41e11620000cd578063408ce41e14620001975780634eef993114620001c757806357fe9c4114620001f75780636506c200146200021157620000f2565b8063068ae80014620000f757806307a918d7146200013b5780631cfae3a11462000169575b600080fd5b3480156200010457600080fd5b506200012360048036038101906200011d91906200109a565b620003a1565b60405162000132919062001232565b60405180910390f35b3480156200014857600080fd5b5062000167600480360381019062000161919062000fa5565b620003e1565b005b3480156200017657600080fd5b506200019560048036038101906200018f919062000fa5565b620004ba565b005b348015620001a457600080fd5b50620001af62000570565b604051620001be919062001379565b60405180910390f35b348015620001d457600080fd5b50620001df62000586565b604051620001ee9190620012a3565b60405180910390f35b3480156200020457600080fd5b506200020f62000616565b005b3480156200021e57600080fd5b506200023d600480360381019062000237919062000fe6565b620006b3565b005b3480156200024c57600080fd5b506200026b6004803603810190620002659190620010c6565b62000775565b6040516200027a9190620012a3565b60405180910390f35b3480156200029057600080fd5b50620002af6004803603810190620002a9919062000f23565b62000a16565b604051620002be9190620012c7565b60405180910390f35b348015620002d457600080fd5b50620002f36004803603810190620002ed919062000fa5565b62000a36565b005b3480156200030257600080fd5b506200032160048036038101906200031b919062000f4f565b62000aec565b005b3480156200033057600080fd5b506200033b62000bc6565b6040516200034a919062001232565b60405180910390f35b6200037160048036038101906200036b919062001040565b62000bec565b005b3480156200038057600080fd5b506200039f600480360381019062000399919062000fa5565b62000d91565b005b60008181548110620003b257600080fd5b906000526020600020016000915054906101000a900473ffffffffffffffffffffffffffffffffffffffff1681565b600260003373ffffffffffffffffffffffffffffffffffffffff1673ffffffffffffffffffffffffffffffffffffffff16815260200190815260200160002060009054906101000a900460ff166200043857600080fd5b3273ffffffffffffffffffffffffffffffffffffffff163373ffffffffffffffffffffffffffffffffffffffff168373ffffffffffffffffffffffffffffffffffffffff167f788ba44205d17f3b0ee1367fb62c1167bfcd4cb4c5f68565eff6a4a713a029fc84604051620004ae919062001308565b60405180910390a45050565b600260003373ffffffffffffffffffffffffffffffffffffffff1673ffffffffffffffffffffffffffffffffffffffff16815260200190815260200160002060009054906101000a900460ff166200051157600080fd5b3373ffffffffffffffffffffffffffffffffffffffff16818373ffffffffffffffffffffffffffffffffffffffff167ff80b6d248ca65e589d3f24c7ce36e2df22ba16ba4e7656aad67e114abbe971d260405160405180910390a45050565b600160149054906101000a900463ffffffff1681565b606060008054806020026020016040519081016040528092919081815260200182805480156200060c57602002820191906000526020600020905b8160009054906101000a900473ffffffffffffffffffffffffffffffffffffffff1673ffffffffffffffffffffffffffffffffffffffff1681526020019060010190808311620005c1575b5050505050905090565b600260003373ffffffffffffffffffffffffffffffffffffffff1673ffffffffffffffffffffffffffffffffffffffff16815260200190815260200160002060009054906101000a900460ff166200066d57600080fd5b423373ffffffffffffffffffffffffffffffffffffffff167f70d9e94b919d23d73ccba865af4e71f621527dc7bb72c0e5f4b301aa118a1f2160405160405180910390a3565b600260003373ffffffffffffffffffffffffffffffffffffffff1673ffffffffffffffffffffffffffffffffffffffff16815260200190815260200160002060009054906101000a900460ff166200070a57600080fd5b3373ffffffffffffffffffffffffffffffffffffffff168173ffffffffffffffffffffffffffffffffffffffff167fb8db0b1b5bb8eeb10ccb7e3a5860f312bb18e7df04fab35093f02ec292b4868484604051620007699190620012e4565b60405180910390a35050565b606060648260ff1611156200078957600080fd5b6000808463ffffffff1610620007ee57600160149054906101000a900463ffffffff1663ffffffff168463ffffffff161015620007c75783620007e8565b60018060149054906101000a900463ffffffff16620007e791906200148b565b5b620007f1565b60005b90506000600160149054906101000a900463ffffffff1663ffffffff168460ff16866200081f91906200144a565b63ffffffff161162000842578360ff16856200083c91906200144a565b62000856565b600160149054906101000a900463ffffffff165b905060008083836200086991906200148b565b63ffffffff1667ffffffffffffffff811115620008af577f4e487b7100000000000000000000000000000000000000000000000000000000600052604160045260246000fd5b604051908082528060200260200182016040528015620008de5781602001602082028036833780820191505090505b50905060008490505b8363ffffffff168163ffffffff16101562000a085760008163ffffffff16815481106200093d577f4e487b7100000000000000000000000000000000000000000000000000000000600052603260045260246000fd5b9060005260206000200160009054906101000a900473ffffffffffffffffffffffffffffffffffffffff16828463ffffffff1681518110620009a8577f4e487b7100000000000000000000000000000000000000000000000000000000600052603260045260246000fd5b602002602001019073ffffffffffffffffffffffffffffffffffffffff16908173ffffffffffffffffffffffffffffffffffffffff16815250508280620009ef90620015e4565b9350508080620009ff90620015e4565b915050620008e7565b508094505050505092915050565b60026020528060005260406000206000915054906101000a900460ff1681565b600260003373ffffffffffffffffffffffffffffffffffffffff1673ffffffffffffffffffffffffffffffffffffffff16815260200190815260200160002060009054906101000a900460ff1662000a8d57600080fd5b3373ffffffffffffffffffffffffffffffffffffffff16818373ffffffffffffffffffffffffffffffffffffffff167f54dba80f86e498df5a2fcdb5c089d051d97ce8ca9ddb708c70da66557a954de760405160405180910390a45050565b600260003373ffffffffffffffffffffffffffffffffffffffff1673ffffffffffffffffffffffffffffffffffffffff16815260200190815260200160002060009054906101000a900460ff1662000b4357600080fd5b3373ffffffffffffffffffffffffffffffffffffffff168273ffffffffffffffffffffffffffffffffffffffff168473ffffffffffffffffffffffffffffffffffffffff167fa3fcd9fac43d8e8dbdbfe97d24e08f037fb57a98796ed439d2bb0734a7e9da3d8460405162000bb9919062001308565b60405180910390a4505050565b600160009054906101000a900473ffffffffffffffffffffffffffffffffffffffff1681565b6000343334858560405162000c019062000e47565b62000c1094939291906200124f565b6040518091039082f090508015801562000c2e573d6000803e3d6000fd5b50905060008190506000819080600181540180825580915050600190039060005260206000200160009091909190916101000a81548173ffffffffffffffffffffffffffffffffffffffff021916908373ffffffffffffffffffffffffffffffffffffffff1602179055506001601481819054906101000a900463ffffffff168092919062000cbd90620015e4565b91906101000a81548163ffffffff021916908363ffffffff16021790555050423373ffffffffffffffffffffffffffffffffffffffff167f64e97ae571fcba04679025e3fdec1d28db6290169b860e4fc0bffe78eaa8fbd23487858860405162000d2b949392919062001325565b60405180910390a36001600260008373ffffffffffffffffffffffffffffffffffffffff1673ffffffffffffffffffffffffffffffffffffffff16815260200190815260200160002060006101000a81548160ff02191690831515021790555050505050565b600260003373ffffffffffffffffffffffffffffffffffffffff1673ffffffffffffffffffffffffffffffffffffffff16815260200190815260200160002060009054906101000a900460ff1662000de857600080fd5b3373ffffffffffffffffffffffffffffffffffffffff16818373ffffffffffffffffffffffffffffffffffffffff167f30be95ab6c5c53cb981afb1f79acc7f48dd2dd64716cf7344c2efef4e8cf06b760405160405180910390a45050565b612b6280620016ee83390190565b600062000e6c62000e6684620013bf565b62001396565b90508281526020810184848401111562000e8557600080fd5b62000e9284828562001569565b509392505050565b60008135905062000eab8162001685565b92915050565b600082601f83011262000ec357600080fd5b813562000ed584826020860162000e55565b91505092915050565b60008135905062000eef816200169f565b92915050565b60008135905062000f0681620016b9565b92915050565b60008135905062000f1d81620016d3565b92915050565b60006020828403121562000f3657600080fd5b600062000f468482850162000e9a565b91505092915050565b60008060006060848603121562000f6557600080fd5b600062000f758682870162000e9a565b935050602062000f888682870162000e9a565b925050604062000f9b8682870162000ede565b9150509250925092565b6000806040838503121562000fb957600080fd5b600062000fc98582860162000e9a565b925050602062000fdc8582860162000ede565b9150509250929050565b6000806040838503121562000ffa57600080fd5b600083013567ffffffffffffffff8111156200101557600080fd5b620010238582860162000eb1565b9250506020620010368582860162000e9a565b9150509250929050565b600080604083850312156200105457600080fd5b600083013567ffffffffffffffff8111156200106f57600080fd5b6200107d8582860162000eb1565b9250506020620010908582860162000ede565b9150509250929050565b600060208284031215620010ad57600080fd5b6000620010bd8482850162000ede565b91505092915050565b60008060408385031215620010da57600080fd5b6000620010ea8582860162000ef5565b9250506020620010fd8582860162000f0c565b9150509250929050565b600062001115838362001132565b60208301905092915050565b6200112c816200152d565b82525050565b6200113d81620014c6565b82525050565b6200114e81620014c6565b82525050565b6000620011618262001405565b6200116d818562001428565b93506200117a83620013f5565b8060005b83811015620011b157815162001195888262001107565b9750620011a2836200141b565b9250506001810190506200117e565b5085935050505092915050565b620011c981620014da565b82525050565b6000620011dc8262001410565b620011e8818562001439565b9350620011fa81856020860162001578565b620012058162001674565b840191505092915050565b6200121b8162001506565b82525050565b6200122c8162001510565b82525050565b600060208201905062001249600083018462001143565b92915050565b600060808201905062001266600083018762001143565b62001275602083018662001210565b8181036040830152620012898185620011cf565b90506200129a606083018462001210565b95945050505050565b60006020820190508181036000830152620012bf818462001154565b905092915050565b6000602082019050620012de6000830184620011be565b92915050565b60006020820190508181036000830152620013008184620011cf565b905092915050565b60006020820190506200131f600083018462001210565b92915050565b60006080820190506200133c600083018762001210565b8181036020830152620013508186620011cf565b905062001361604083018562001121565b62001370606083018462001210565b95945050505050565b600060208201905062001390600083018462001221565b92915050565b6000620013a2620013b5565b9050620013b08282620015ae565b919050565b6000604051905090565b600067ffffffffffffffff821115620013dd57620013dc62001645565b5b620013e88262001674565b9050602081019050919050565b6000819050602082019050919050565b600081519050919050565b600081519050919050565b6000602082019050919050565b600082825260208201905092915050565b600082825260208201905092915050565b6000620014578262001510565b9150620014648362001510565b92508263ffffffff0382111562001480576200147f62001616565b5b828201905092915050565b6000620014988262001510565b9150620014a58362001510565b925082821015620014bb57620014ba62001616565b5b828203905092915050565b6000620014d382620014e6565b9050919050565b60008115159050919050565b600073ffffffffffffffffffffffffffffffffffffffff82169050919050565b6000819050919050565b600063ffffffff82169050919050565b600060ff82169050919050565b60006200153a8262001541565b9050919050565b60006200154e8262001555565b9050919050565b60006200156282620014e6565b9050919050565b82818337600083830152505050565b60005b83811015620015985780820151818401526020810190506200157b565b83811115620015a8576000848401525b50505050565b620015b98262001674565b810181811067ffffffffffffffff82111715620015db57620015da62001645565b5b80604052505050565b6000620015f18262001510565b915063ffffffff8214156200160b576200160a62001616565b5b600182019050919050565b7f4e487b7100000000000000000000000000000000000000000000000000000000600052601160045260246000fd5b7f4e487b7100000000000000000000000000000000000000000000000000000000600052604160045260246000fd5b6000601f19601f8301169050919050565b6200169081620014c6565b81146200169c57600080fd5b50565b620016aa8162001506565b8114620016b657600080fd5b50565b620016c48162001510565b8114620016d057600080fd5b50565b620016de8162001520565b8114620016ea57600080fd5b5056fe60806040526001600760046101000a81548160ff0219169083151502179055506001600760056101000a81548160ff02191690831515021790555060405162002b6238038062002b6283398181016040528101906200005f919062000268565b33600960006101000a81548173ffffffffffffffffffffffffffffffffffffffff021916908373ffffffffffffffffffffffffffffffffffffffff160217905550836000806101000a81548173ffffffffffffffffffffffffffffffffffffffff021916908373ffffffffffffffffffffffffffffffffffffffff160217905550826006819055508160089080519060200190620000ff92919062000118565b50426004819055508060058190555050505050620004cf565b8280546200012690620003c0565b90600052602060002090601f0160209004810192826200014a576000855562000196565b82601f106200016557805160ff191683800117855562000196565b8280016001018555821562000196579182015b828111156200019557825182559160200191906001019062000178565b5b509050620001a59190620001a9565b5090565b5b80821115620001c4576000816000905550600101620001aa565b5090565b6000620001df620001d98462000316565b620002ed565b905082815260208101848484011115620001f857600080fd5b620002058482856200038a565b509392505050565b6000815190506200021e816200049b565b92915050565b600082601f8301126200023657600080fd5b815162000248848260208601620001c8565b91505092915050565b6000815190506200026281620004b5565b92915050565b600080600080608085870312156200027f57600080fd5b60006200028f878288016200020d565b9450506020620002a28782880162000251565b935050604085015167ffffffffffffffff811115620002c057600080fd5b620002ce8782880162000224565b9250506060620002e18782880162000251565b91505092959194509250565b6000620002f96200030c565b9050620003078282620003f6565b919050565b6000604051905090565b600067ffffffffffffffff8211156200033457620003336200045b565b5b6200033f826200048a565b9050602081019050919050565b6000620003598262000360565b9050919050565b600073ffffffffffffffffffffffffffffffffffffffff82169050919050565b6000819050919050565b60005b83811015620003aa5780820151818401526020810190506200038d565b83811115620003ba576000848401525b50505050565b60006002820490506001821680620003d957607f821691505b60208210811415620003f057620003ef6200042c565b5b50919050565b62000401826200048a565b810181811067ffffffffffffffff821117156200042357620004226200045b565b5b80604052505050565b7f4e487b7100000000000000000000000000000000000000000000000000000000600052602260045260246000fd5b7f4e487b7100000000000000000000000000000000000000000000000000000000600052604160045260246000fd5b6000601f19601f8301169050919050565b620004a6816200034c565b8114620004b257600080fd5b50565b620004c08162000380565b8114620004cc57600080fd5b50565b61268380620004df6000396000f3fe6080604052600436106101095760003560e01c8063b88a802f11610095578063e59a58ee11610064578063e59a58ee14610315578063ea8a1af01461031f578063ebb510ae14610336578063f189449814610361578063fb06b8721461038c57610109565b8063b88a802f1461027f578063c45a015514610296578063cd38aa87146102c1578063d8bff5a5146102d857610109565b80636dd7d8ea116100dc5780636dd7d8ea146101b85780637c65d711146101d457806387bfba65146101ff57806389713a3c14610216578063b30906d41461024157610109565b806302fb0c5e1461010e5780630cbb0f8314610139578063228cb733146101645780632b00cd641461018f575b600080fd5b34801561011a57600080fd5b50610123610396565b6040516101309190611e16565b60405180910390f35b34801561014557600080fd5b5061014e6103a9565b60405161015b9190612019565b60405180910390f35b34801561017057600080fd5b506101796103bf565b6040516101869190611ffe565b60405180910390f35b34801561019b57600080fd5b506101b660048036038101906101b19190611a9a565b6103c5565b005b6101d260048036038101906101cd9190611a71565b61075b565b005b3480156101e057600080fd5b506101e9610af0565b6040516101f69190611e4c565b60405180910390f35b34801561020b57600080fd5b50610214610b7e565b005b34801561022257600080fd5b5061022b610c08565b6040516102389190611d27565b60405180910390f35b34801561024d57600080fd5b5061026860048036038101906102639190611adb565b610c76565b604051610276929190611dbd565b60405180910390f35b34801561028b57600080fd5b50610294610d52565b005b3480156102a257600080fd5b506102ab610f8c565b6040516102b89190611e31565b60405180910390f35b3480156102cd57600080fd5b506102d6610fb2565b005b3480156102e457600080fd5b506102ff60048036038101906102fa9190611a71565b6110dc565b60405161030c9190611ffe565b60405180910390f35b61031d6110f4565b005b34801561032b57600080fd5b5061033461121d565b005b34801561034257600080fd5b5061034b611456565b6040516103589190611d27565b60405180910390f35b34801561036d57600080fd5b506103766114d5565b6040516103839190611d42565b60405180910390f35b6103946114f9565b005b600760049054906101000a900460ff1681565b600760009054906101000a900463ffffffff1681565b60065481565b60011515600760049054906101000a900460ff1615151461041b576040517f08c379a000000000000000000000000000000000000000000000000000000000815260040161041290611f9e565b60405180910390fd5b60001515600a60003373ffffffffffffffffffffffffffffffffffffffff1673ffffffffffffffffffffffffffffffffffffffff16815260200190815260200160002060009054906101000a900460ff161515146104ae576040517f08c379a00000000000000000000000000000000000000000000000000000000081526004016104a590611fde565b60405180910390fd5b60008054906101000a900473ffffffffffffffffffffffffffffffffffffffff1673ffffffffffffffffffffffffffffffffffffffff163373ffffffffffffffffffffffffffffffffffffffff16141561053d576040517f08c379a000000000000000000000000000000000000000000000000000000000815260040161053490611f5e565b60405180910390fd5b6001600a60003373ffffffffffffffffffffffffffffffffffffffff1673ffffffffffffffffffffffffffffffffffffffff16815260200190815260200160002060006101000a81548160ff021916908315150217905550600760059054906101000a900460ff16156105c6576000600760056101000a81548160ff0219169083151502179055505b600060405180604001604052803373ffffffffffffffffffffffffffffffffffffffff168152602001838152509050600c81908060018154018082558091505060019003906000526020600020906002020160009091909190915060008201518160000160006101000a81548173ffffffffffffffffffffffffffffffffffffffff021916908373ffffffffffffffffffffffffffffffffffffffff160217905550602082015181600101908051906020019061068492919061193c565b5050506007600081819054906101000a900463ffffffff16809291906106a9906122ca565b91906101000a81548163ffffffff021916908363ffffffff16021790555050600960009054906101000a900473ffffffffffffffffffffffffffffffffffffffff1673ffffffffffffffffffffffffffffffffffffffff16636506c20083336040518363ffffffff1660e01b8152600401610725929190611e6e565b600060405180830381600087803b15801561073f57600080fd5b505af1158015610753573d6000803e3d6000fd5b505050505050565b60011515600760049054906101000a900460ff161515146107b1576040517f08c379a00000000000000000000000000000000000000000000000000000000081526004016107a890611f9e565b60405180910390fd5b600034116107f4576040517f08c379a00000000000000000000000000000000000000000000000000000000081526004016107eb90611e9e565b60405180910390fd5b8073ffffffffffffffffffffffffffffffffffffffff163373ffffffffffffffffffffffffffffffffffffffff161415610863576040517f08c379a000000000000000000000000000000000000000000000000000000000815260040161085a90611ebe565b60405180910390fd5b60011515600a60008373ffffffffffffffffffffffffffffffffffffffff1673ffffffffffffffffffffffffffffffffffffffff16815260200190815260200160002060009054906101000a900460ff161515146108f6576040517f08c379a00000000000000000000000000000000000000000000000000000000081526004016108ed90611fbe565b60405180910390fd5b61094834600b60008473ffffffffffffffffffffffffffffffffffffffff1673ffffffffffffffffffffffffffffffffffffffff1681526020019081526020016000205461166b90919063ffffffff16565b600b60008373ffffffffffffffffffffffffffffffffffffffff1673ffffffffffffffffffffffffffffffffffffffff16815260200190815260200160002081905550600354600b60008373ffffffffffffffffffffffffffffffffffffffff1673ffffffffffffffffffffffffffffffffffffffff168152602001908152602001600020541115610a5c57600b60008273ffffffffffffffffffffffffffffffffffffffff1673ffffffffffffffffffffffffffffffffffffffff1681526020019081526020016000205460038190555080600260006101000a81548173ffffffffffffffffffffffffffffffffffffffff021916908373ffffffffffffffffffffffffffffffffffffffff1602179055505b600960009054906101000a900473ffffffffffffffffffffffffffffffffffffffff1673ffffffffffffffffffffffffffffffffffffffff1663c3dff8ae8233346040518463ffffffff1660e01b8152600401610abb93929190611d86565b600060405180830381600087803b158015610ad557600080fd5b505af1158015610ae9573d6000803e3d6000fd5b5050505050565b60088054610afd90612267565b80601f0160208091040260200160405190810160405280929190818152602001828054610b2990612267565b8015610b765780601f10610b4b57610100808354040283529160200191610b76565b820191906000526020600020905b815481529060010190602001808311610b5957829003601f168201915b505050505081565b60011515600760049054906101000a900460ff16151514610bd4576040517f08c379a0000000000000000000000000000000000000000000000000000000008152600401610bcb90611f9e565b60405180910390fd5b6202a300600554600454610be891906120a6565b610bf291906120a6565b4211610bfd57600080fd5b610c0633611681565b565b60008060035411610c4e576040517f08c379a0000000000000000000000000000000000000000000000000000000008152600401610c4590611efe565b60405180910390fd5b600260009054906101000a900473ffffffffffffffffffffffffffffffffffffffff16905090565b600c8181548110610c8657600080fd5b90600052602060002090600202016000915090508060000160009054906101000a900473ffffffffffffffffffffffffffffffffffffffff1690806001018054610ccf90612267565b80601f0160208091040260200160405190810160405280929190818152602001828054610cfb90612267565b8015610d485780601f10610d1d57610100808354040283529160200191610d48565b820191906000526020600020905b815481529060010190602001808311610d2b57829003601f168201915b5050505050905082565b60001515600760049054906101000a900460ff16151514610da8576040517f08c379a0000000000000000000000000000000000000000000000000000000008152600401610d9f90611f1e565b60405180910390fd5b6000600b60003373ffffffffffffffffffffffffffffffffffffffff1673ffffffffffffffffffffffffffffffffffffffff1681526020019081526020016000205411610e2a576040517f08c379a0000000000000000000000000000000000000000000000000000000008152600401610e2190611f3e565b60405180910390fd5b6000600b60003373ffffffffffffffffffffffffffffffffffffffff1673ffffffffffffffffffffffffffffffffffffffff1681526020019081526020016000205490506000600b60003373ffffffffffffffffffffffffffffffffffffffff1673ffffffffffffffffffffffffffffffffffffffff168152602001908152602001600020819055503373ffffffffffffffffffffffffffffffffffffffff166108fc829081150290604051600060405180830381858888f19350505050158015610ef9573d6000803e3d6000fd5b50600960009054906101000a900473ffffffffffffffffffffffffffffffffffffffff1673ffffffffffffffffffffffffffffffffffffffff16631cfae3a133836040518363ffffffff1660e01b8152600401610f57929190611ded565b600060405180830381600087803b158015610f7157600080fd5b505af1158015610f85573d6000803e3d6000fd5b5050505050565b600960009054906101000a900473ffffffffffffffffffffffffffffffffffffffff1681565b60011515600760049054906101000a900460ff16151514611008576040517f08c379a0000000000000000000000000000000000000000000000000000000008152600401610fff90611f9e565b60405180910390fd5b60008054906101000a900473ffffffffffffffffffffffffffffffffffffffff1673ffffffffffffffffffffffffffffffffffffffff163373ffffffffffffffffffffffffffffffffffffffff1614611096576040517f08c379a000000000000000000000000000000000000000000000000000000000815260040161108d90611ede565b60405180910390fd5b6005546004546110a691906120a6565b42116110b157600080fd5b6110da60008054906101000a900473ffffffffffffffffffffffffffffffffffffffff16611681565b565b600b6020528060005260406000206000915090505481565b60008054906101000a900473ffffffffffffffffffffffffffffffffffffffff1673ffffffffffffffffffffffffffffffffffffffff163373ffffffffffffffffffffffffffffffffffffffff16141580156111505750600034115b15611171576000600760056101000a81548160ff0219169083151502179055505b6111863460065461166b90919063ffffffff16565b600681905550600960009054906101000a900473ffffffffffffffffffffffffffffffffffffffff1673ffffffffffffffffffffffffffffffffffffffff1663a28ed05333346040518363ffffffff1660e01b81526004016111e9929190611ded565b600060405180830381600087803b15801561120357600080fd5b505af1158015611217573d6000803e3d6000fd5b50505050565b60008054906101000a900473ffffffffffffffffffffffffffffffffffffffff1673ffffffffffffffffffffffffffffffffffffffff163373ffffffffffffffffffffffffffffffffffffffff16146112ab576040517f08c379a00000000000000000000000000000000000000000000000000000000081526004016112a290611ede565b60405180910390fd5b60011515600760049054906101000a900460ff16151514611301576040517f08c379a00000000000000000000000000000000000000000000000000000000081526004016112f890611f9e565b60405180910390fd5b600760059054906101000a900460ff16611350576040517f08c379a000000000000000000000000000000000000000000000000000000000815260040161134790611f7e565b60405180910390fd5b6000600760046101000a81548160ff02191690831515021790555060008054906101000a900473ffffffffffffffffffffffffffffffffffffffff1673ffffffffffffffffffffffffffffffffffffffff166108fc479081150290604051600060405180830381858888f193505050501580156113d1573d6000803e3d6000fd5b50600960009054906101000a900473ffffffffffffffffffffffffffffffffffffffff1673ffffffffffffffffffffffffffffffffffffffff166357fe9c416040518163ffffffff1660e01b8152600401600060405180830381600087803b15801561143c57600080fd5b505af1158015611450573d6000803e3d6000fd5b50505050565b6000801515600760049054906101000a900460ff161515146114ad576040517f08c379a00000000000000000000000000000000000000000000000000000000081526004016114a490611f1e565b60405180910390fd5b600160009054906101000a900473ffffffffffffffffffffffffffffffffffffffff16905090565b60008054906101000a900473ffffffffffffffffffffffffffffffffffffffff1681565b60001515600760049054906101000a900460ff1615151461154f576040517f08c379a000000000000000000000000000000000000000000000000000000000815260040161154690611f1e565b60405180910390fd5b600160009054906101000a900473ffffffffffffffffffffffffffffffffffffffff1673ffffffffffffffffffffffffffffffffffffffff166108fc349081150290604051600060405180830381858888f193505050501580156115b7573d6000803e3d6000fd5b50600960009054906101000a900473ffffffffffffffffffffffffffffffffffffffff1673ffffffffffffffffffffffffffffffffffffffff166307a918d7600160009054906101000a900473ffffffffffffffffffffffffffffffffffffffff16346040518363ffffffff1660e01b8152600401611637929190611d5d565b600060405180830381600087803b15801561165157600080fd5b505af1158015611665573d6000803e3d6000fd5b50505050565b6000818361167991906120a6565b905092915050565b6000600760046101000a81548160ff02191690831515021790555060006116b4600a60065461191090919063ffffffff16565b90508173ffffffffffffffffffffffffffffffffffffffff166108fc829081150290604051600060405180830381858888f193505050501580156116fc573d6000803e3d6000fd5b50600260009054906101000a900473ffffffffffffffffffffffffffffffffffffffff16600160006101000a81548173ffffffffffffffffffffffffffffffffffffffff021916908373ffffffffffffffffffffffffffffffffffffffff1602179055506117758160065461192690919063ffffffff16565b600681905550600160009054906101000a900473ffffffffffffffffffffffffffffffffffffffff1673ffffffffffffffffffffffffffffffffffffffff166108fc61182d600b6000600160009054906101000a900473ffffffffffffffffffffffffffffffffffffffff1673ffffffffffffffffffffffffffffffffffffffff1673ffffffffffffffffffffffffffffffffffffffff1681526020019081526020016000205460065461166b90919063ffffffff16565b9081150290604051600060405180830381858888f19350505050158015611858573d6000803e3d6000fd5b50600960009054906101000a900473ffffffffffffffffffffffffffffffffffffffff1673ffffffffffffffffffffffffffffffffffffffff1663ff181dad600160009054906101000a900473ffffffffffffffffffffffffffffffffffffffff166006546040518363ffffffff1660e01b81526004016118da929190611d5d565b600060405180830381600087803b1580156118f457600080fd5b505af1158015611908573d6000803e3d6000fd5b505050505050565b6000818361191e91906120fc565b905092915050565b60008183611934919061212d565b905092915050565b82805461194890612267565b90600052602060002090601f01602090048101928261196a57600085556119b1565b82601f1061198357805160ff19168380011785556119b1565b828001600101855582156119b1579182015b828111156119b0578251825591602001919060010190611995565b5b5090506119be91906119c2565b5090565b5b808211156119db5760008160009055506001016119c3565b5090565b60006119f26119ed84612059565b612034565b905082815260208101848484011115611a0a57600080fd5b611a15848285612225565b509392505050565b600081359050611a2c8161261f565b92915050565b600082601f830112611a4357600080fd5b8135611a538482602086016119df565b91505092915050565b600081359050611a6b81612636565b92915050565b600060208284031215611a8357600080fd5b6000611a9184828501611a1d565b91505092915050565b600060208284031215611aac57600080fd5b600082013567ffffffffffffffff811115611ac657600080fd5b611ad284828501611a32565b91505092915050565b600060208284031215611aed57600080fd5b6000611afb84828501611a5c565b91505092915050565b611b0d816121cb565b82525050565b611b1c81612173565b82525050565b611b2b81612161565b82525050565b611b3a81612185565b82525050565b611b49816121dd565b82525050565b6000611b5a8261208a565b611b648185612095565b9350611b74818560208601612234565b611b7d816123b3565b840191505092915050565b6000611b95602483612095565b9150611ba0826123c4565b604082019050919050565b6000611bb8601c83612095565b9150611bc382612413565b602082019050919050565b6000611bdb601483612095565b9150611be68261243c565b602082019050919050565b6000611bfe600c83612095565b9150611c0982612465565b602082019050919050565b6000611c21601383612095565b9150611c2c8261248e565b602082019050919050565b6000611c44601183612095565b9150611c4f826124b7565b602082019050919050565b6000611c67602483612095565b9150611c72826124e0565b604082019050919050565b6000611c8a603d83612095565b9150611c958261252f565b604082019050919050565b6000611cad602183612095565b9150611cb88261257e565b604082019050919050565b6000611cd0600f83612095565b9150611cdb826125cd565b602082019050919050565b6000611cf3601883612095565b9150611cfe826125f6565b602082019050919050565b611d12816121b1565b82525050565b611d21816121bb565b82525050565b6000602082019050611d3c6000830184611b22565b92915050565b6000602082019050611d576000830184611b13565b92915050565b6000604082019050611d726000830185611b04565b611d7f6020830184611d09565b9392505050565b6000606082019050611d9b6000830186611b22565b611da86020830185611b22565b611db56040830184611d09565b949350505050565b6000604082019050611dd26000830185611b22565b8181036020830152611de48184611b4f565b90509392505050565b6000604082019050611e026000830185611b22565b611e0f6020830184611d09565b9392505050565b6000602082019050611e2b6000830184611b31565b92915050565b6000602082019050611e466000830184611b40565b92915050565b60006020820190508181036000830152611e668184611b4f565b905092915050565b60006040820190508181036000830152611e888185611b4f565b9050611e976020830184611b22565b9392505050565b60006020820190508181036000830152611eb781611b88565b9050919050565b60006020820190508181036000830152611ed781611bab565b9050919050565b60006020820190508181036000830152611ef781611bce565b9050919050565b60006020820190508181036000830152611f1781611bf1565b9050919050565b60006020820190508181036000830152611f3781611c14565b9050919050565b60006020820190508181036000830152611f5781611c37565b9050919050565b60006020820190508181036000830152611f7781611c5a565b9050919050565b60006020820190508181036000830152611f9781611c7d565b9050919050565b60006020820190508181036000830152611fb781611ca0565b9050919050565b60006020820190508181036000830152611fd781611cc3565b9050919050565b60006020820190508181036000830152611ff781611ce6565b9050919050565b60006020820190506120136000830184611d09565b92915050565b600060208201905061202e6000830184611d18565b92915050565b600061203e61204f565b905061204a8282612299565b919050565b6000604051905090565b600067ffffffffffffffff82111561207457612073612384565b5b61207d826123b3565b9050602081019050919050565b600081519050919050565b600082825260208201905092915050565b60006120b1826121b1565b91506120bc836121b1565b9250827fffffffffffffffffffffffffffffffffffffffffffffffffffffffffffffffff038211156120f1576120f06122f7565b5b828201905092915050565b6000612107826121b1565b9150612112836121b1565b92508261212257612121612326565b5b828204905092915050565b6000612138826121b1565b9150612143836121b1565b925082821015612156576121556122f7565b5b828203905092915050565b600061216c82612191565b9050919050565b600061217e82612191565b9050919050565b60008115159050919050565b600073ffffffffffffffffffffffffffffffffffffffff82169050919050565b6000819050919050565b600063ffffffff82169050919050565b60006121d682612201565b9050919050565b60006121e8826121ef565b9050919050565b60006121fa82612191565b9050919050565b600061220c82612213565b9050919050565b600061221e82612191565b9050919050565b82818337600083830152505050565b60005b83811015612252578082015181840152602081019050612237565b83811115612261576000848401525b50505050565b6000600282049050600182168061227f57607f821691505b6020821081141561229357612292612355565b5b50919050565b6122a2826123b3565b810181811067ffffffffffffffff821117156122c1576122c0612384565b5b80604052505050565b60006122d5826121bb565b915063ffffffff8214156122ec576122eb6122f7565b5b600182019050919050565b7f4e487b7100000000000000000000000000000000000000000000000000000000600052601160045260246000fd5b7f4e487b7100000000000000000000000000000000000000000000000000000000600052601260045260246000fd5b7f4e487b7100000000000000000000000000000000000000000000000000000000600052602260045260246000fd5b7f4e487b7100000000000000000000000000000000000000000000000000000000600052604160045260246000fd5b6000601f19601f8301169050919050565b7f4d7573742073656e642076616c756520746f20766f746520666f7220616e206560008201527f6e74727900000000000000000000000000000000000000000000000000000000602082015250565b7f596f752063616e6e6f7420766f746520666f7220796f757273656c6600000000600082015250565b7f4e6f742061757468656e74696361746564203a28000000000000000000000000600082015250565b7f4e6f20766f746573207965740000000000000000000000000000000000000000600082015250565b7f4e6f206f6e652068617320776f6e207965742100000000000000000000000000600082015250565b7f4e6f20766f74657320666f7220796f7521000000000000000000000000000000600082015250565b7f596f752063616e6e6f7420656e74657220796f7572206f776e20636f6d6d697360008201527f73696f6e00000000000000000000000000000000000000000000000000000000602082015250565b7f436f6e74726163742063616e6e6f742062652063616e63656c6c6564206f6e6360008201527f6520656e74726965732068617665206265656e207375626d6974746564000000602082015250565b7f5468697320636f6d6d697373696f6e2068617320616c726561647920656e646560008201527f6400000000000000000000000000000000000000000000000000000000000000602082015250565b7f456e747279206e6f7420666f756e640000000000000000000000000000000000600082015250565b7f596f75206861766520616c726561647920656e74657265640000000000000000600082015250565b61262881612161565b811461263357600080fd5b50565b61263f816121b1565b811461264a57600080fd5b5056fea2646970667358221220076b710d9493d8d6581ad619189cdc67fdbbe538534038e2e1a03f84e3e6d3ea64736f6c63430008040033a26469706673582212202954cef33c123b131f06cbc19b63638d404ebae28d824bb21ad464703200d7a264736f6c63430008040033",
  "immutableReferences": {},
  "source": "// SPDX-License-Identifier: MIT\npragma solidity ^0.8.4;\nimport \"./Commission.sol\";\n\ncontract Factory {\n    address[] public deployedCommissions;\n    address public deployer;\n    uint32 public commissionCount;\n    mapping(address => bool) public commissions;\n\n    constructor () {\n        deployer = msg.sender;\n    }\n\n    modifier commissionOnly() {\n        require(commissions[msg.sender]);\n        _;\n    }\n\n    event CommissionCreated(\n        address indexed commissioner, \n        uint indexed timestamp, \n        uint reward, \n        string prompt, \n        address commission,\n        uint minTime\n        );\n    event RewardAdded(address indexed sender, uint256 indexed value, address indexed commission);\n    event CommissionCancelled(address indexed commission, uint256 indexed timestamp);\n    event EntrySubmitted(address indexed author,string ipfsPath, address indexed commission);\n    event WinnerChosen(address indexed winningAuthor, uint256 indexed reward, address indexed commission);\n    event RewardClaimed(address indexed claimer, uint256 indexed votesClaimed, address indexed commission);\n    event WinnerTipped(address indexed winningAuthor, uint256 amount, address indexed commission, address indexed tipper);\n    event VoteSubmitted(\n        address indexed author,\n        address indexed voter,\n        uint256 amount,\n        address indexed commission\n    );\n\n    function createCommission(string memory prompt, uint256 _minTime) payable public {\n        Commission newCommission = (new Commission){value: msg.value}(msg.sender, msg.value, prompt, _minTime);\n        address payable commissionAddress = payable(address(newCommission));\n        deployedCommissions.push(commissionAddress);\n        commissionCount++;\n        emit CommissionCreated(msg.sender, block.timestamp, msg.value, prompt, commissionAddress, _minTime);\n        commissions[commissionAddress] = true;\n    }  \n\n    function getDeployedCommissions() public view returns (address[] memory) {\n        return deployedCommissions;\n    }\n\n    function paginatedCommissions(uint32 _start, uint8 _pageSize) public view returns (address[] memory) {\n        require(_pageSize <= 100);\n        uint32 start = _start < 0 ? 0 : _start >= commissionCount ? commissionCount - 1 : _start;\n        uint32 finish = _start + _pageSize > commissionCount ? commissionCount : _start + _pageSize;\n        uint32 counter;\n        address[] memory commissionPage = new address[](finish - start);\n        for (uint32 i = start; i < finish; i++) {\n            commissionPage[counter] = deployedCommissions[i];\n            counter++;\n        }\n        return commissionPage;\n    }\n\n    function _voteSubmitted(address _author, address _voter, uint256 _value) external commissionOnly {\n        emit VoteSubmitted(_author, _voter, _value, msg.sender);\n    }\n\n    function _rewardAdded(address _sender, uint256 _value) external commissionOnly {\n        emit RewardAdded(_sender, _value, msg.sender);\n    }\n\n    function _commissionCancelled() external commissionOnly {\n        emit CommissionCancelled(msg.sender, block.timestamp);\n    }\n\n    function _entrySubmitted(string memory _ipfsPath, address _author) external commissionOnly {\n        emit EntrySubmitted(_author, _ipfsPath, msg.sender);\n    }\n    function _winnerChosen(address _winningAuthor, uint256 _reward) external commissionOnly {\n        emit WinnerChosen(_winningAuthor, _reward, msg.sender);\n    }\n    function _rewardClaimed(address _claimer, uint256 _votesClaimed) external commissionOnly {\n        emit RewardClaimed(_claimer, _votesClaimed, msg.sender);\n    }\n    function _winnerTipped(address _winningAuthor, uint256 _amount) external commissionOnly {\n        emit WinnerTipped(_winningAuthor, _amount, msg.sender, tx.origin);\n    }\n}\n",
  "sourcePath": "/Users/thomasfoydel/Documents/Coding/solidity/commissionerGithub/blockchain/contracts/Factory.sol",
  "compiler": {
    "name": "solc",
    "version": "0.8.4+commit.c7e474f2.Emscripten.clang"
  },
  "schemaVersion": "3.4.1",
  "updatedAt": "2022-03-12T20:36:36.081Z",
  "devdoc": {
    "kind": "dev",
    "methods": {},
    "version": 1
  },
  "userdoc": {
    "kind": "user",
    "methods": {},
    "version": 1
  }
}